:020000040000fa
:10000000f03f0020f12300002f230000ef2b000021
:1000100000000000000000000000000000000000e0
:10002000000000000000000000000000db170000de
:100030000000000000000000db1700009532000007
:10004000db170000db170000db170000db170000e8
:10005000db170000db170000db170000db170000d8
:10006000db170000db170000db170000db170000c8
:10007000db170000db170000db170000db170000b8
:10008000db170000db170000db170000db170000a8
:10009000db1700000000000000000000db1700007c
:1000a000db170000db170000db170000db17000088
:0800b00000000000db17000056
:020000040000fa
:1000b800f8b5c046f8bc08bc9e467047ad2600009f
:1000c800f8b5c046f8bc08bc9e46704785260000b7
:020000040000fa
:1000d800f0b59db00490039115001c00002805d0d0
:1000e80083690593002b01d102f0b6f8984b039a67
:1000f8009a4260d1049b5b680393039b9b891b070f
:1001080067d5039b1b690593002b62d000220f92d1
:1001180020220aab5a76302206959a76069d2b78cd
:10012800002b60d1069bee1a0cd03300069a039977
:10013800049802f02ffc431c00d170e10f9b9e191c
:1001480005930f962b78002b00d168e101220aaea7
:10015800524272605322002306a97e4f521801357d
:100168000a93f360b36013702237052229783800a8
:1001780003f0f6f86a1c002839d13068c30604d5a4
:100188005323202106afdb191970030704d5532325
:100198002b2106afdb1919702b782a2b2fd00020c2
:1001a8000a21f3682a78303a092a00d870e0002832
:1001b8002cd0f3602ae0684b039a9a4202d1049b40
:1001c8009b6899e7654b039a9a4296d1049bdb6832
:1001d80092e70399049801f019fa002896d00120b3
:1001e80040421db0f0bd252b9cd0013597e7012377
:1001f800c01b8340316815000b433360b5e72368a3
:10020800211d002b3edbf36015000c002b782e2bf4
:100218000ad16b786a1c2a2b42d122680235231d29
:10022800002a3adb1c0072604a4f297828370322db
:10023800380003f095f8002806d04023c01b8340ff
:100248003268013513433360424f297838006b1cfc
:1002580006222c300693317603f082f85322337e3f
:1002680006a95218692b31d03ed8582b78d029d8f6
:10027800002b00d1f6e0522106a809180b700123c3
:100288000e9356e05b42f360022303433360bbe7ff
:100298004b4301359b18012084e701225242c1e7f4
:1002a800002315000a201a007360297830390929bb
:1002b80003d9002bb8d07260b6e742430135521813
:1002c8000123f2e7632b2cd0642bd4d10a99231d88
:1002d8002668080633d51c00002e02da2d23764244
:1002e80013700a23059357e0702b00d19ee00dd8b8
:1002f8006f2bc0d10a99221d2668080623d5140041
:100308006f2b00d19be00a23059340e0752bf1d0b9
:10031800782bb0d15523782206a95b181a701137ab
:1003280022e0522306a95b182178043419700123ae
:10033800336100235225137006abed1851e04906ce
:10034800c9d536b2c7e74906d9d5b6b2d7e7c04648
:10035800183200002c2e000038320000f83100005e
:10036800552206a9521813700a9b221d26681906e1
:1003780061d51400da0702d5202213430a9310230b
:100388000593002e03d120230a9a9a430a925323f5
:10039800002206a95b181a700b9b0c93002b7bdbc1
:1003a80004220a9991430a91002e4ad1002b75d153
:1003b800532506abed18059b082b0dd10a9bdb07cf
:1003c8000ad50b9b05930e9b0793079a059b9342af
:1003d80002dc3023013d2b70532306aa9b185b1bbc
:1003e8000e93314b09aa00930aa9039b049801f0c4
:1003f80083f9431c13d00e9b2a000399049802f03a
:10040800c9fa431c0bd00a9b002505939b0737d4d8
:10041800099a0d9b934200da13005a1c37d1039bab
:100428000f989b895b0600d4dbe6d8e62023326868
:10043800134333606ee759069bd5b6b299e7082394
:1004480062e7532506abed183000059901f02afd47
:100458007b5c013d30002b70059901f0e7fc061e1e
:10046800f2d1a8e733611500bbe7292206a90123c9
:1004780052180498039902f08dfa431ccfd0013525
:100488000d9b099a05939b1a9d42eedbc0e70f9ad4
:10049800d31805920f9341e6002ed2d1522506ab10
:0c04a800ed183b782b7086e79d290000c2
:020000040000fa
:1004b4005c0300201c0000000000000088030020f2
:1004c400020000000000000000000020c000000046
:1004d40000000000c00000200c000000000000002c
:1004e400cc000020c00000000000000078030020c1
:1004f4000400000001000000fc020020fc020020b7
:10050400600000000100000000000000183200003c
:1005140038320000f8310000000000000000000044
:1005240000000000000000000000000000000000c7
:1005340000000000000000000000000000000000b7
:1005440000000000000000000000000000000000a7
:100554000000000000000000000000000000000097
:1005640000000000000000007c03002004000000e4
:1005740000000000800300200400000000000000d0
:10058400900100206c010000010000004300000005
:100594000000000000000000000000000000000057
:1005a4000000000000000000000000004300000004
:1005b4000000000000000000000000000000000037
:1005c40000000000000000000000000043000000e4
:1005d4000000000000000000000000000000000017
:1005e40000000000000000000000000043000000c4
:1005f40000000000000000000000000000000000f7
:1006040000000000000000000000000043000000a3
:1006140000000000000000000000000000000000d6
:100624000000000000000000000000004300000083
:1006340000000000000000000000000000000000b6
:100644000000000000000000000000004300000063
:100654000000000000000000000000000000000096
:100664000000000000000000000000005133000002
:10067400753100000000000014140000393400003b
:1006840038340000383400003834000038340000b6
:1006940038340000383400003834000038340000a6
:1006a40038340000ffffffffffffffffffffffffe6
:1006b400ffff0000010041534349490000000000ce
:1006c4000000000000000000000000000000000026
:1006d40000000000000041534349490000000000ad
:1006e4000000000000000000000000000000000006
:1006f40000000000000000008c0100200400000045
:10070400000000008403002004000000000000003a
:1007140000000000000000002222222222222222c5
:020000040000fa
:1007240010b5944980239b02112800d919e1800057
:10073400914a12589746914a1140f02252031143ac
:100744008f4a1140e022d20011430f229143072225
:100754001143f82464011c43082002f041f90028e5
:1007640000d001e121000c2002f03af9002800d069
:10077400fde010bd814a1140e02212031143804a7a
:100784001140c022920011430f22914303221143ce
:10079400f02424011c43dfe7784a1140802212032d
:1007a4001143774a11408022920011430f22914352
:1007b40002221143902424011c43cde76f4a1140c7
:1007c400c022d20211436e4a1140802252001143ca
:1007d4000f22914301221143e024e4001c43bbe7b0
:1007e400664a11408022d2021143654a1140802298
:1007f400520011430f22914301221143a024e4002b
:100804001c43a9e75d4a1140c022920211435c4a8d
:1008140011400f2291438024e4001c439ce7574a73
:100824001140802292021143554a11400f229143f4
:10083400c024a4001c4301231c438de74f4a1140ec
:100844008022520211434e4a11400f2291438024c8
:10085400a4001c4380e70902090a80235b041943ae
:10086400464b1940f0235b031943454b1940e023e1
:10087400db0019430f23994307231943f824640128
:100884006ae70902090a80235b0419433b4b1940b8
:1008940088235b0319433a4b19408023db00194337
:1008a4000f239943042319439024640154e7334ae2
:1008b4001140f02252031143314a1140e022d20088
:1008c40011430f22914307221143f82464011c436e
:1008d40042e72a4a1140902252031143284a114008
:1008e400a022d20011430f229143052211439824e0
:1008f40064011c4330e7214a1140e02212031143f2
:100904001f4a1140c022920011430f229143032237
:100914001143f02424011c431ee7184a114080228d
:1009240012031143164a11408022920011430f22f0
:10093400914302221143902424011c430ce70f4ae3
:100944001140c022d20211430d4a114080225200ac
:1009540011430f22914301221143e024e4001c437c
:10096400fae60120404204e70220404201e7032066
:100974004042fee603030e00a4270000ffffe0ff51
:04098400fff0ffff82
:020000040000fa
:10098800f0b5de4657464e464546e0b583b080464c
:100998008c469246002948d0002846d0694a5268b9
:1009a800072111400dd000206246d20700d5a0e0f3
:1009b800002b4ad14246501e8241524260461040a6
:1009c80084465246002a00d19ce05e4a127e5207b5
:1009d80005d55c4a0424906a107e2042fbd1594a0e
:1009e800508b042420435083107e802420431076ab
:1009f80000229146634502d962469a1a9146002917
:100a080006d05b086246520894464a465208914608
:100a18004c4c0120227e0242fcd000220027494c87
:100a2800042601250192009123e00020002b60d0cc
:100a38005246002a64d0434a52680721114000d127
:100a480079e06246002a00d06fe00020da07b1d5cd
:100a58004fe078004246805ac005c00da0620137b9
:100a6800002b13d1019a0099207e2842fcd00192d4
:100a7800009167452ad0009a002aead14046c05d15
:100a8800a0620137ece7304aa26227e0019a009998
:100a9800207e3042fcd001928b460091a06a110062
:100aa8009a42e6d25a46002a04d15246505401319d
:100ab8000191dee7019a52009346c005c00d5246e7
:100ac80059468852019a01320192d2e74a46002ad1
:100ad80009d0009a002ad6d1ff22a26201225242ee
:100ae8009346d944bce7174902220b7e1342fcd037
:100af800012003b03cbc90469946a246ab46f0bde7
:100b08000020f6e70f4b1a7e0023520700d560e756
:100b18000c4b5a8b042002435a831a7e80200243ce
:100b28001a7600230022914669e700206246d20720
:100b380000d48ae7dde74246002a00d041e70022d8
:0c0b4800944642e7000c0042ff01000050
:020000040000fa
:100b540010b561498024a402112800d9b3e08000b3
:100b64005e4b1b589f465e4b1940e0231b03194301
:100b74005c4b1940c0239b0019430f239943032363
:100b84001943f0231b011c43082001f029ff00280e
:100b940000d09be021000c2001f022ff002800d0af
:100ba40097e010bd4e4b1940c023db0219434d4b57
:100bb400194080235b0019430f23994301231943f0
:100bc400e023db001c43dfe7454b194080239b02f5
:100bd4001943444b19400f239943c0239b001c43e2
:100be400d2e73f4b194080235b0219433d4b194028
:100bf4000f239943f233ff331c43c5e7384b1940a5
:100c0400f0235b031943374b1940e023db001943fe
:100c14000f23994307231943f8246401b4e7304ba5
:100c2400194088235b0319432e4b19408023db00b2
:100c340019430f2399430423194390246401a3e720
:100c4400274b1940e0231b031943264b1940c023ab
:100c54009b0019430f23994303231943f0231b01da
:100c64001c4391e71e4b194080231b0319431d4b62
:100c7400194080239b0019430f23994302231943ee
:100c840090231b011c437fe7154b1940c023db0253
:100c94001943144b194080235b0019430f239943d4
:100ca40001231943e023db001c436de70c4b19407f
:100cb40080239b0219430b4b19400f239943c023f4
:100cc4009b001c4360e7012040426ae70220404247
:100cd40067e70320404264e703030e003428000062
:080ce400ffffe0fffff0ffff3e
:020000040000fa
:100cec00f0b599b004000d0001921e000c20604379
:100cfc00503080b2032215a900f022ff002800d04a
:100d0c0097e002ab4c229b181b78159a120600d563
:100d1c0092e0179a1005000d8022d2009446604490
:100d2c0020271f4000d06de033000833dbb29a0758
:100d3c0003d0032293430433dbb21a1c4c2b00d98f
:100d4c004c22d2b202a901f0adf9002800d076e015
:100d5c0002ab5b781b0202aa1278134302aa9178a9
:100d6c0009043a4a13400b4302a9c97809061b022d
:100d7c001b0a0b432b6002a90979ff2083430b4309
:100d8c0002a949790902324803400b4302a9897927
:100d9c00090413400b4302aad27912061b021b0a48
:100dac0013436b60002f31d002aa127aff218b43c0
:100dbc00134302aa527a12020340134302aa927af4
:100dcc00120422490b40134302aad27a12061b02c8
:100ddc001b0a1343ab60002e0dd005a9019a013eee
:100dec00f0b218ab9c4660444b380b781370013151
:100dfc0001328142f9d1200002f0d0fa002821d131
:100e0c0019b0f0bd33000c33dbb290e70023ab60bc
:100e1c00002ef0d004a9019d013ef0b218ab9c4607
:100e2c0060444f380b782b70013101358142f9d178
:100e3c00e1e701204042e3e702204042e0e70320e3
:100e4c004042dde704204042dae7c046ffff00ffe6
:040e5c00ff00ffff95
:020000040000fa
:100e6000f0b51d004f4b85b01e6804000f000092c6
:100e7000002e05d0b369002b02d1300001f0f0f94b
:100e8000494b9c4250d17468009b022b05d0012b2a
:100e900000d984e0002d00da81e02100300001f06b
:100ea000fffa616b002908d023004433994202d035
:100eb000300000f0e7fe002363630023a36163605a
:100ec000a3891b0603d52169300000f0dbfea3894e
:100ed000364a1340a381009b022b5ad003ab02aacf
:100ee0002100300001f032fba3891843a081002dbe
:100ef00024d1029d280002f04dfa0195071e42d12f
:100f0000029b0193ab4239d1012040420223a289c6
:100f10001343a3810023a36023004733236023618d
:100f20000123636105b0f0bd214b9c4201d1b4683f
:100f3000aae7204b9c42a7d1f468a5e7002fd9d09f
:100f4000b369002b02d1300001f08af9009b012b1c
:100f500003d1a389009a1a43a2810820a38927609c
:100f600027616561184018d001201840002398427d
:100f700011d06d42a360a5611800d3e7019802f07b
:100f800009fa071ec0d08023a289019d1343a381c3
:100f9000d6e70020bae7a560c4e7a060c2e7012059
:100fa0004042bfe778030020183200005cf3ffffe7
:080fb00038320000f8310000a6
:020000040000fa
:100fb80070b501f0afff01f0b7fdff2001f0c4feee
:100fc8003b4c200001f07cf9237820221343237046
:100fd8006378402293431a007f23134063702000f4
:100fe80000f060fd334c200002f032f963781f22d4
:100ff80093430722134320225242134363702378fa
:101008003e25ab430222134323702100022001f046
:101018007dfb294c200002f0bbf82378ab431e224d
:10102800134323702288e0235b00134323802100ad
:10103800012001f0f7fd214900250d60c0239b0028
:101048000b800023cb701e4c0b6823400b600020e4
:1010580002f0b8f91b490d60ff23db000b80402329
:10106800cb700b681c400c60002002f0b3f9012221
:101078000121002002f018f900220221012001f0cc
:10108800b0fa0021002001f033fa0121022001f01a
:10109800c7fc0121012001f07dfa032001f0e0fde9
:1010a800052001f081fd0422074b5a6170bdc0463e
:1010b800bc000020040000202c0000203400002088
:0c10c800ff0700e014000020004400417d
:020000040000fa
:1010d400f0b5c64600b582b0c046c046394b1a8842
:1010e400511c198038490f231a40c0239b009c4689
:1010f40062440b88db0adb0213430b800b790f225b
:101104001a43ef23134040221343802252421343d5
:101114000b710f2001f0c4fdff260640b046371eb8
:101124000add00250024294e00f084ff70550134a7
:1011340024b22500bc42f7db254b1a6a3123920501
:1011440011d5234880218900026a0a420bd0013b51
:10115400dbb2002bf8d1c046c0461e4a1e491f48c8
:1011640001f02cfe18e0194f174d0124009443465a
:101174003a002900022000f0ccf93a782988490580
:10118400490d174802f026f80a2001f07ffe104ba3
:101194001b6a1b0a1c4203d002b004bc9046f0bd7b
:1011a400104c4023220010490120fff79dfd2278b6
:1011b400054b19884905490d0948343002f00af8ed
:1011c400eae7c046880300201c0000203c00002001
:1011d40000440041180000203800002030000020a6
:0c11e400902100007c000020080000208a
:020000040000fa
:1011f000f7b58a8905000c00130760d44b68002bf3
:1012000004dc0b6c002b01dc0020febde76a002f24
:10121000fad000232e682b6080235b011a4034d063
:10122000606da3895b0706d56368c01a636b002bea
:1012300001d0236cc01a0200216a00232800e76a4b
:10124000b847a189431c06d12b681d2b31d82c4ae5
:10125000da40d3072dd50023636023692360cb04d4
:1012600005d5431c02d12b68002b00d16065616b52
:101270002e600029c8d023004433994202d02800b0
:1012800000f000fd00206063bfe70123216a280011
:10129000b847431cc5d12b68002bc2d01d2b01d0f1
:1012a000162b01d12e60afe74023a2891343a381ff
:1012b000abe740230b430120a3814042a5e70f6920
:1012c000002fa1d00b680f60db1b01930023920756
:1012d00000d14b69a360019b002b00dc94e7019bcc
:1012e0003a00216a2800a66ab047002803dc4023a0
:1012f000a2891343dfe7019b3f181b1a0193eae71a
:041300000100402088
:020000040000fa
:1013040010b53f498024a402112800d96ee0800062
:101314003c4b1b589f463c4b1940c023db021943ee
:101324003a4b194080235b0019430f23994301234f
:101334001943e023db001c43082001f051fb002883
:1013440057d121000c2001f04bfb002854d110bdd3
:101354002d4b194080239b0219432c4b19400f231a
:101364009943c0239b001c43e6e7274b1940e02325
:101374001b031943254b1940c0239b0019430f231a
:10138400994303231943f0242401d5e71e4b194044
:10139400e023db0219431d4b194080239b001943b2
:1013a4000f2399430223194380242401c4e7164bd5
:1013b4001940c023db021943144b194080235b00fe
:1013c40019430f23994301231943e023db001c43f2
:1013d400b2e70d4b194080239b0219430b4b194074
:1013e4000f239943c0239b001c43a5e701204042df
:1013f400ade702204042aae703204042a7e7c046e7
:1014040003030e00c4280000ffffe0fffff0ffff0e
:020000040000fa
:1014140000202020202020202020282828282820c0
:1014240020202020202020202020202020202020b8
:101434002088101010101010101010101010101020
:101444001004040404040404040404101010101010
:1014540010104141414141410101010101010101da
:10146400010101010101010101010101101010102c
:1014740010104242424242420202020202020202ac
:101484000202020202020202020202021010101000
:101494002000000000000000000000000000000028
:1014a4000000000000000000000000000000000038
:1014b4000000000000000000000000000000000028
:1014c4000000000000000000000000000000000018
:1014d4000000000000000000000000000000000008
:1014e40000000000000000000000000000000000f8
:1014f40000000000000000000000000000000000e8
:1015040000000000000000000000000000000000d7
:0115140000d6
:020000040000fa
:10151600f0b5c64600b596b004000e0017001d00d3
:101526001cab1b7898460c206043503080b20322d7
:1015360013a900f008fb002859d1139b1b0659d5a7
:1015460030790007000f01f0aafba84255d3159b7e
:101556001805000d8023db009c46604433786a46fc
:10156600137073785370b3789370f378d3703379bc
:10157600137173795371b3799371f379d371002d24
:1015860033d00022002319006944ba5c0a72013381
:10159600dbb21a009d42f6d80022ab0713d0032314
:1015a6002b400422d21a92b22f000837ffb2002a2b
:1015b60009d000236f440026f9180e720133dbb2fe
:1015c60099b28a42f8d80835521992b2694600f0a3
:1015d60038ff002814d14146200001f009fd0028fb
:1015e60011d116b004bc9046f0bd0022ebe70120f5
:1015f6004042f6e702204042f3e703204042f0e78c
:0c16060004204042ede705204042eae7e6
:020000040000fa
:0216120070471f
:020000040000fa
:10161400364b70b51d6806000c00002d05d0ab6973
:10162400002b02d1280000f019fe314b9c420fd14f
:101634006c680c23e25e93b219072dd4d90611d439
:1016440009233360402301201343a381404270bd2a
:10165400284b9c4201d1ac68ebe7274b9c42e8d174
:10166400ec68e6e75b0713d5616b002908d023001b
:101674004433994202d0300000f002fb002363633c
:101684002422a3899343a3810023636023692360f5
:101694000823a2891343a3812369002b0bd1a02122
:1016a4008022a389890092000b40934203d0210039
:1016b400300000f043fc0123a289134011d0002321
:1016c400a36063695b42a361002023698342bed1a6
:1016d4000c23e25e1306bad540231343a3810138d9
:1016e400b5e7920700d46369a360ede778030020af
:0c16f4001832000038320000f83100000d
:020000040000fa
:10170000f7b5150001938a680b6900900c009342ad
:1017100000da130022002b6043321278002a01d035
:1017200001332b6023689b0602d52b6802332b60a4
:10173000062723681f4027d0230043331b785a1ef7
:1017400093412268920630d42200019943320098d6
:10175000089eb047431c25d0062320682a68e1680c
:1017600003400025042b03d18d1aeb43db171d40ea
:10177000a3682269934201dd9b1aed180027bd4240
:1017800020d1002010e00137e3682a689b1a9f42ad
:10179000d2da22000123193201990098089eb0473d
:1017a000431cf0d101204042febd3020e1184331fe
:1017b000087021005a1c45310978a21843320233bf
:1017c0001170c1e7220001231a3201990098089e86
:0a17d000b047431ce6d00137d1e713
:020000040000fa
:0217da00fee728
:020000040000fa
:1017dc00f8b505000e001400002804d08369002b16
:1017ec0001d100f037fd294b9c4233d16c68a369c1
:1017fc00a360a3891b0737d52369002b34d00c2396
:10180c00e25e80239b01f7b2f6b21a4236d023680f
:10181c002269981a6369984205db2100280000f0c0
:10182c0039fe002826d1a3680130013ba360236850
:10183c005a1c22601f706369984204d0a389db078d
:10184c001ad50a2e18d12100280000f023fe0028fa
:10185c0012d00fe00e4b9c4201d1ac68c7e70d4b88
:10186c009c42c4d1ec68c2e721002800fff7ccfef3
:10187c000028c4d0012676423000f8bd1343a38162
:10188c00226e054b13402366c1e7c0461832000098
:0c189c0038320000f8310000ffdfffffd1
:020000040000fa
:1018a800032370b5cd1c9d43083506000c2d1ed2b0
:1018b8000c25a9421dd8300001f099fa254a146870
:1018c8002100002919d1244c2368002b03d13000b2
:1018d80001f004fc20602900300001f0fffb431cec
:1018e8002cd10c233000336001f095fb03e0002d70
:1018f800dfda0c233360002070bd0b685b1b1ad441
:101908000b2b03d90b60cc18256003e08c420ed159
:1019180063681360300001f07efb200007220b3063
:10192800231d9043c31ae7d05a42e250e4e74b68bc
:1019380063600c00eee70c004968c2e70323c41c8f
:101948009c43a042e0d0211a300001f0c7fb431ca1
:0c195800dad1c6e77c03002080030020e9
:020000040000fa
:1019640010b5244911283fd88000234b1b589f46ab
:10197400224b1940f0235b031943214b1940e02308
:10198400db0019437f23994307231943042001f003
:1019940027f800282bd110bd194b1940f0231b0147
:1019a40019437f2399430f231943efe7134b19403e
:1019b400e0231b031943124b1940c0239b00194316
:1019c4007f23994303231943e0e70c4b1940fc237d
:1019d400db0319430a4b1940f8235b0119437f23a6
:1019e40099431f231943d1e701204042d3e7022042
:1019f4004042d0e70f0f3e00ec270000ffff00ff3e
:041a0400ff80ffff61
:020000040000fa
:101a080010b5244911283fd88000234b1b589f4606
:101a1800224b1940e0231b031943214b1940c023d3
:101a28009b0019437f23994303231943042000f0a3
:101a3800d5ff00282bd110bd184b1940f0235b03ac
:101a48001943174b1940e023db0019437f239943bf
:101a580007231943eae7114b1940e023db02194336
:101a68000f4b194080239b0019437f23994302237e
:101a78001943dbe70a4b1940f0231b0119437f2365
:101a880099430f231943d1e701204042d3e70220ad
:101a98004042d0e70f0f3e007c280000ffff00ff08
:041aa800ff80ffffbd
:020000040000fa
:101aac0070b50278d306db0e204919435409012383
:101abc001c4064012025a943214394091c40a40126
:101acc004025a9432143d2091a401202184c214047
:101adc00114342789407640d164d294095081d401a
:101aec002d032143d4081c402404294315091d400f
:101afc006d04214354091c40a40429432143940937
:101b0c001c40e4040c4d29402143d20913401b0511
:101b1c000a4a11408278120719431143002000f041
:101b2c005bff431e9841404270bdc046600798045d
:101b3c00fffefffffff9fffffffff7ffffffefffc8
:020000040000fa
:101b4c00f0b5c64600b582b005000e001400204862
:101b5c002b051b0f3033037045701e4d8027ff0281
:101b6c006f61002300220221fef708ff8046a300cc
:101b7c009bb2194a00210020fef700ffaf614346db
:101b8c00002b23d0002821d0002c1ad0013ca7b266
:101b9c000137bf00002000239c4601ad0e4c04e031
:101bac00019b3350043087420bd083b262460192c2
:101bbc000022e15c515501339bb20132042af8d169
:101bcc00eee7002002b004bc9046f0bd0120f9e71e
:0c1bdc00cc000020004400412c0100203f
:020000040000fa
:101be80010b5224911283dd88000214b1b589f462b
:101bf800204b1940f0231b0119437f2399430f23de
:101c08001943042000f0eafe10bd1b4b1940fc23c9
:101c1800db031943174b1940f8235b0119437f2352
:101c280099431f231943ece7134b1940f0235b0337
:101c38001943104b1940e023db0019437f239943d4
:101c480007231943dde70c4b1940fe231b041943f6
:101c5800084b1940fc239b0119437f2399433f23d9
:101c68001943cee701204042cee7c0460f0f3e00a1
:0c1c78005c270000ff80ffffffff00ff63
:020000040000fa
:101c840070b50500002910d00c1f2368002b00da62
:101c9400e418280001f0adf81d4a1368002b05d1a3
:101ca40063601460280001f0b8f970bda34209d93b
:101cb400216860188342f3d118685b684118216079
:101cc400eee713005a68002a01d0a242f9d9196834
:101cd4005818a0420bd1206809185818196082427c
:101ce400e0d110685268411819605a60dae7a042de
:101cf40002d90c232b60d5e721686018824203d1f6
:101d0400106852684118216062605c60cae7c0468e
:041d14007c0300202c
:020000040000fa
:101d1800204a214b70b50021934203d21970013338
:101d28009342fbd1002503261c4803684168002b19
:101d380018d100292dd083680c30002b18d000232f
:101d48000022845c9c5401328a42fad333000b404f
:101d58005a1e934189085918890040180368416838
:101d6800002be6d082680c30002a07d10029dcd08d
:101d780059181d7001338b42fbd1d6e70029dfd1fa
:101d880033000b405a1e934189085918890040189e
:101d9800e4e770bd9001002000000020b4040000ba
:020000040000fa
:101da8001a4b00229a619a8c80218a439a841900de
:101db8001022cb681a42fcd0154b1b689b0e3f2b98
:101dc80022d09b02134a12689205920d13430f4ac0
:101dd80093620223938411001022cb681a42fcd02c
:101de8000d4a0e4b5a601a0053785bb2002bfbdb8e
:101df8000a4b0b4a5a8004325a800a4a0a4b1a6222
:101e08000022024b1a6270471f23dae700080040dd
:101e1800246080002860800000070100000c00405a
:0c1e28001540000088000100000400408c
:020000040000fa
:101e3400002934d00123002210b488422cd3012479
:101e44002407a14204d2814202d209011b01f8e70e
:101e5400e400a14204d2814202d249005b00f8e7c7
:101e6400884201d3401a1a434c08a04202d3001bf3
:101e74005c0822438c08a04202d3001b9c08224326
:101e8400cc08a04202d3001bdc082243002803d064
:101e94001b0901d00909e3e7101c10bc704701b508
:101ea400002001f0e9fa02bd0029f8d003b5fff7dc
:0c1eb400c1ff0ebc4243891a1847c0460b
:020000040000fa
:101ec000f8b51e4b07001e68b369002b02d1300025
:101ed00000f0c6f94836b4687368013b04d533682e
:101ee000002b07d03668f6e70c22a55e002d0dd03a
:101ef0006434f2e70421380001f026f8306000284d
:101f0000f0d10c2304003b602000f8bd01235b42ac
:101f1000e381200001232566a3812560a56065601b
:101f200025616561a56108222900583001f066fa33
:101f30006563a563a564e564e6e7c04680340000f8
:020000040000fa
:101f4000f7b502268b8905000c00334206d023002a
:101f500047332360236101236361f7bd01ab6a4608
:101f600000f0f4fa009907002800fff79dfc002814
:101f700006d10c22a35e9a05efd41e43a681e6e7a4
:101f80000d4bab628023a28920601343a381009b89
:101f900020616361019b002b0ad00e23e15e2800c3
:101fa00001f0d6f8002803d00123a2891343a381ae
:0c1fb000a0893843a081d0e7ed33000089
:020000040000fa
:101fbc00f0b585b001900e00140001f08ff90128e6
:101fcc001ad1731efe2b17d8050002ab1e71002709
:101fdc00af4220d003abd95da368013ba360002bbb
:101fec0004daa269934219db0a2917d023685a1c18
:101ffc00226019700137ebe723003200583303a934
:10200c00019800f013fb0500431ce0d140230600af
:10201c00a2891343a381300005b0f0bd22000198c2
:0c202c00fff7d6fb431ce5d10600f4e7eb
:020000040000fa
:10203800154b10b51c68a36b002b15d1182001f0a7
:10204800a5f9124ba0630380114b01224380114b69
:102058008380114bc380114b0381052343810b23dc
:102068008381002302614361a46b0d4a2069616981
:102078000c4b00f0f7fc0122002380185941206125
:1020880061614800400810bd780300200e3300004d
:10209800cdabffff341200006de6ffffecdeffff63
:0820a8002d7f954c2df45158d9
:020000040000fa
:1020b000f0b5c64600b506000d00140016483305fd
:1020c0001b0f303303704670144e8027ff02776178
:1020d000002300220221fef757fc80462300104a0d
:1020e00000210020fef750fcb7614346002b11d0c1
:1020f00000280fd0002c09d0013ca1b201310023ef
:102100000748c25cea5401338b42fad1002004bc78
:102110009046f0bd0120fae7cc00002000440041c9
:042120002c0100206e
:020000040000fa
:10212400f8b502000c00164813051b0f303303707a
:102134004270144d8026f6026e61002300220221b3
:10214400fef720fc070004230f4a00210020fef7bd
:1021540019fcae61002f10d000280ed0002323609c
:102164000948c25cd9008a4021688c4662442260d6
:102174000133042bf5d10020f8bd0120fce7c04653
:0c218400cc000020004400412c01002091
:020000040000fa
:102190000d0a205472616e736d6974206d657373de
:1021a0006167652773204944203d20253034782c11
:1021b00020616e64207478645b305d203d202530a2
:1021c000327800000d0a2052656365697665206dde
:1021d0006573736167652773204944203d2025306e
:1021e00034782c20616e64207278645b305d203d11
:0821f000202530327800c046c2
:020000040000fa
:1021f80030b5164b164a1a60164a1a61062146224d
:1022080099544822995449229954012250201a5429
:1022180051201a5453201a5456201a542224382074
:102228001c54202439201c5403203b241855802595
:10223800ed0080241d5180252d0190241d51cb24b3
:102248001955d6215a54bb22985430bd0044004138
:0822580004000400400304002f
:020000040000fa
:10226000836913b50400002b28d18364c36403651c
:10227000134b144a1b6882620193984201d10123d7
:1022800083612000fff71cfe60602000fff718fe4e
:10229000a0602000fff714fe0022e06004216068c7
:1022a00000f058fb01220921a06800f053fb022234
:1022b0001221e06800f04efb0123a36113bdc0466c
:0822c00080340000ed33000042
:020000040000fa
:1022c800f0b5ce46474680b5037820211f229343b8
:1022d8008b43202213434025dbb2ab4340263343d4
:1022e800802291467f2423401343037003274378b9
:1022f8009846032342469a431743fb233b4008274b
:10230800bb431027bb438b43ab43334323404a466d
:102318001a43427083780f229343837000200cbcc9
:0623280090469946f0bd4d
:020000040000fa
:02232e00fee7c8
:020000040000fa
:10233000f8b502000c00144813051b0f303303706e
:102340004270124d8026f6026e61002300220221a7
:10235000fef71afb070002230d4a00210020fef7ba
:1023600013fbae61002f0cd000280ad0002323807d
:10237000074a13782380527812029b18238000208a
:10238000f8bd0120fce7c046cc000020004400411d
:042390002c010020fc
:020000040000fa
:10239400f0b5c64600b502000e00114813051b0f28
:1023a400303303704270002383700e4d8027ff0288
:1023b4006f6100220221fef7e5fa80460a4c0123f0
:1023c400220000210020fef7ddfaaf61237833708c
:1023d400434618400123584040b204bc9046f0bd27
:0c23e400cc000020004400412c0100202f
:020000040000fa
:1023f00010b50e4b002b00d098470d4b002b00d092
:102400009847fff789fc0b4aff210b4b8b439360e6
:102410000a4b98470a4b002b00d09847094b002bda
:1024200000d0984700f0c8fefee7c046000000005c
:102430000000000000ed00e0000000000d29000099
:08244000000000000000000094
:020000040000fa
:1024480070b50b00911c89b2104d0405240f20347f
:102458002c70687002290bd918000d4b013a94b200
:102468001c19013402781a7001300133a342f9d1e2
:10247800084c8025ed026561002300220348fef721
:102488007ffaa5610123584040b270bdcc000020fe
:08249800ce00002000440041c9
:020000040000fa
:1024a0000b6970b505000c00002b01d1002070bd38
:1024b000002804d08369002b01d1fff7d1fe0b4b1c
:1024c0009c4209d16c680c22a35e002beed0210047
:1024d0002800fef78dfeeae7054b9c4201d1ac686f
:1024e000f1e7044b9c42eed1ec68ece718320000b7
:0824f00038320000f831000051
:020000040000fa
:1024f80030b583b004000d00002301936b46d91d4d
:102508000f48fff743ff002814d16b46da1d01235b
:102518001c401178012081432b405b00214302209d
:10252800814319431170064800f0f2fb002804d1da
:1025380003b030bd01204042fae702204042f7e7ed
:04254800070e00007a
:020000040000fa
:10254c0070b50e001d000e23c95e90b0140000295a
:10255c0007da00232b60b3891b0611d48023db0020
:10256c000fe001aa00f0dcfd0028f2dbf022029b58
:10257c0012021340054a9b185a4253412b60ede757
:10258c0040230020236010b070bdc04600e0ffff68
:020000040000fa
:10259c0030b583b00d00002818d00c2444435034bf
:1025ac00a4b20023019301a92000fff7edfe00283f
:1025bc000fd101aa0f210d40117829431170200071
:1025cc0000f0a4fb002807d103b030bd64204042ca
:0e25dc00fae701204042f7e702204042f4e710
:020000040000fa
:1025ea0070b504000d00012a0fd0002a04d0022a77
:1025fa0014d00120404270bdfff7f1fa0028fad149
:10260a0029002000fef789f8f5e7fff7a6f9002868
:10261a00f1d129002000fef798faece7fff7eff96d
:0e262a000028e8d129002000fef767fee3e754
:020000040000fa
:102638007fb51d000f4b04001b681b6a002911d1d0
:10264800002b00d10c4be0331e6800222b0001a99f
:102658002000b047431c03d100232b608a2323604a
:1026680004b070bd002b00d1034be0331e682b0073
:0c267800eee7c04678030020900100202f
:020000040000fa
:1026840010b5064c2378002b07d1054b002b02d044
:10269400044800e000bf0123237010bd5c03002048
:1026a4000000000000000000044b10b5002b03d014
:1026b4000349044800e000bf10bdc046000000000c
:0826c40060030020000000008b
:020000040000fa
:1026cc0010b506220e4b5a600e4c23685868002138
:1026dc0000f06dfe23689868002100f068fefff79b
:1026ec0085fdfff75bfb00f08bfe00f0fbfbfef7bc
:1026fc008aff00f0dffc00f0edfa00f099fe10bd4f
:08270c000040004178030020a9
:020000040000fa
:1027140070b54a781f2514002c402406520952072c
:102724000b4b234313430a78940964050949194060
:1027340053082b401b042143d207d20f92011943a3
:1027440011430c235843503080b200f049f970bd56
:0827540080046000ffff9ffffd
:020000040000fa
:10275c00f81b0000f81b0000f81b0000f81b000021
:10276c00f81b0000f81b0000f81b0000f81b000011
:10277c00121c0000121c0000121c0000121c000095
:10278c00121c0000121c0000121c0000301c000067
:08279c00301c00004e1c00007f
:020000040000fa
:1027a4003a070000780700009c070000c0070000fb
:1027b400e4070000080800002208000040080000a8
:1027c4005a08000086080000b2080000d60800007d
:1027d400fa0800001e09000042090000c0070000ba
:0827e400220800005a08000061
:020000040000fa
:1027ec007419000074190000ec1900007419000031
:1027fc007419000074190000741900007419000099
:10280c009c1900009c1900009c1900009c190000e8
:10281c009c1900009c1900009c190000b0190000c4
:08282c00b0190000ce190000f4
:020000040000fa
:102834006a0b0000a80b0000ca0c0000cc0b0000bf
:10284400e60b0000ca0c0000ca0c0000ca0c000011
:10285400000c0000220c0000440c0000680c000076
:102864008c0c0000ca0c0000b00c0000cc0b000063
:08287400ca0c0000000c00007a
:020000040000fa
:10287c00181a0000181a0000901a0000181a00000c
:10288c00181a0000181a0000181a0000181a000074
:10289c00401a0000401a0000401a0000401a0000c4
:1028ac00401a0000401a0000401a00005e1a000096
:0828bc005e1a00007c1a000006
:020000040000fa
:1028c4001a13000054130000f0130000f01300006a
:1028d400f0130000f0130000f0130000f0130000e8
:1028e4006e13000090130000b2130000f0130000f8
:1028f400d6130000f0130000f0130000f0130000e2
:08290400f01300006e13000047
:020000040000fa
:10290c0070b500260c4d0d4c641ba410a64209d1c9
:10291c000026fdf7cbfb0a4d0a4c641ba410a64203
:10292c0005d170bdb300eb5898470136eee7b30004
:10293c00eb5898470136f2e7c4000000c4000000d1
:08294c00c4000000c8000000f7
:020000040000fa
:10295400002310b504000360436083608181036633
:10296400c28103614361836119000822583000f079
:1029740043fd054b24626362044ba362044be36290
:10298400044b236310bdc04621300000892d000094
:08299400752f0000193400004a
:020000040000fa
:10299c00f8b50d00096e06001400d718890418d577
:1029ac009f08bf00d719bc4201d1002008e02a00c3
:1029bc0002cc300000f059fc431cf4d10120404201
:1029cc00f8bd21782a00300000f0fafa0134431cdb
:0829dc00f4d0bc42f5d1e8e79c
:020000040000fa
:1029e40070b502000d4813051b0f203303704270ad
:1029f40081700b0ac3700b0c0371090e4171084cf2
:102a04008025ed026561002300220621fdf7baff4f
:102a1400a5610123584040b270bdc046cc000020df
:042a24000044004129
:020000040000fa
:102a280030b583b00d000c2444435034a4b20023c5
:102a3800019301a92000fff7a9fc00280cd101aae5
:102a480017210d40117829431170200000f060f91a
:102a5800002804d103b030bd01204042fae702202b
:042a68004042f7e70a
:020000040000fa
:102a6c00f7b5050c019393b21f006b439c46140cf5
:102a7c0086b277436643654366443c0ca419a34273
:102a8c0002d980235b02ed18260cbfb2019b2404f3
:102a9c00e41943432000514375195918491903b0df
:022aac00f0bd7b
:020000040000fa
:102aae00f7b504000700002601914834002c01d12f
:102abe003000febd6368a5680093009b013b009348
:102ace0001d52468f2e7ab89012b08d90e22ab5e43
:102ade00013304d029003800019b98470643643522
:022aee00ebe714
:020000040000fa
:102af00070b505000c00002815d000f0b1f90020d9
:102b00000a4a04210726a04208d0137e0b42fcd0bb
:102b1000138d2b540130538b3342f4d0001b4342ae
:102b20005841c0b270bd0020fce7c046001c004206
:020000040000fa
:102b300000b583b06b46d91d00230b700b48fff71f
:102b400029fc00280bd16b46d97901221143d97198
:102b5000064800f0e1f8002804d103b000bd0120d0
:102b60004042fae702204042f7e7c0460c0e000060
:020000040000fa
:102b700070b50c000025002904d0002a02d01500f1
:102b8000022801d9280070bd084b002b04d0110089
:102b9000200000e000bff5e716002078013e00f0bd
:102ba000befb0134002ef8d1ece7c0460000000067
:020000040000fa
:102bb00010b582b004006b46d91d00230b700320b2
:102bc000fff7e8fb00280cd16b46d9790722914327
:102bd0002143d971032000f09ff8002804d102b0ee
:0e2be00010bd01204042fae702204042f7e714
:020000040000fa
:022bee00fee700
:020000040000fa
:102bf00070b502000b4813051b0f203303704270a1
:102c000081700912c170084c8025ed0265610023b6
:102c100000220421fdf7b8fea5610123584040b20f
:0c2c200070bdc046cc0000200044004104
:020000040000fa
:102c2c0070b5002815d00b789a06d20e15060c88b4
:102c3c00e405640f6407084a2a43d907c90f490100
:102c4c00224311430c235843503080b2fff7c4fe8b
:0c2c5c0070bd64204042fbe700046000f3
:020000040000fa
:102c680010b582b0040001a900230b801e20fff7d5
:102c78005bfb00280cd101abe02294431988214367
:102c880019801e20fff7b0ff002804d102b010bd44
:0c2c980001204042fae702204042f7e72a
:020000040000fa
:102ca400c046c046082808d90938c3b2062b11d833
:102cb4009800094b1b589f460c2070471020fce7d6
:102cc4001420fae71820f8e72020f6e73020f4e78c
:0c2cd4004020f2e70020f0e7cc320000c6
:020000040000fa
:102ce0000a4b0b4a1a600b4a9a81c02292025a6020
:102cf0001a00d369002bfcd1044a136802210b434c
:102d00001360d369002bfcd17047c046001c004201
:082d1000040120402bf6ffff37
:020000040000fa
:102d180070b502000a4813051b0f20330370427078
:102d28008170084c8025ed02656100230022032193
:102d3800fdf726fea5610123584040b270bdc0468c
:082d4800cc0000200044004112
:020000040000fa
:102d500030b599b06b4618aa187001339a42fbd16e
:102d60008024e400be252d01602269462000fff783
:102d70006bfb002804d16034a4b2ac42f4d101e072
:082d80000120404219b030bdf2
:020000040000fa
:102d8800f8b51f008b8905000c001600db0505d57a
:102d98000e23c95e0022022300f066f9a389054ac2
:102da80028001340a38132000e23e15e3b0000f0af
:082db80047f9f8bdffefffff32
:020000040000fa
:102dc00070b582b006000d0014000023019301a924
:102dd0003420fff7a7f900280ad101ab5a783270e6
:102de0001a782a709a783f231340237002b070bd7e
:062df00001204042fae759
:020000040000fa
:022df600704724
:020000040000fa
:102df80030b500280fd000290fd005004118084a27
:102e08000124137e2342fcd02b7813850135a94277
:102e1800f7d1012030bd0020fce70120fae7c046c9
:042e2800001c004248
:020000040000fa
:102e2c0030313233343536373839414243444546f4
:102e3c00003031323334353637383961626364658a
:102e4c006600232d302b2000686c4c0065666745ae
:032e5c00464700e6
:020000040000fa
:102e60000a4b588b0723184000d17047074b80222c
:102e70001a7607225a831b7e5b07f6d5034b042183
:102e80001a8d1a7e0a42fbd1efe7c046001c0042b1
:020000040000fa
:102e900010b5094b1b68db439b0700d010bd074be7
:102ea0009c68fa2189004843fef7c4ff034a9368ef
:102eb0001b1b9842fbd8f1e710e000e0c0000020a7
:020000040000fa
:102ec000084a1368002b09d007491818884202d80d
:102ed00010601800704701204042fbe7034b13606d
:102ee000f2e7c046840300209005002090030020f4
:020000040000fa
:102ef00080229202074b5a601a00d369002bfcd142
:102f0000044b17221a73044a1a601a00d369002b63
:0c2f1000fcd17047000c00420e003000a5
:020000040000fa
:102f1c0070b50848002303704370074c8025ed0200
:102f2c00656100220221fdf729fda56101235840ae
:0c2f3c0040b270bdcc00002000440041f9
:020000040000fa
:102f480070b564254a1e55430e0029007031fef7fe
:102f5800a7fc041e08d000212a00016046600c303e
:0c2f6800a060643200f046fa200070bd4a
:020000040000fa
:102f740070b50c000e25495f00f078f8a389421c57
:102f840003d1054a1340a38170bd8022520113432b
:0c2f9400a3816065f8e7c046ffefffff77
:020000040000fa
:102fa00070b5002600290ed0002a0cd0160000288b
:102fb00009d10c001500012000f0a4f9013d20709a
:0c2fc0000134002df7d1300070bdc04678
:020000040000fa
:102fcc00936810b5013b9360002b05da9469a3421a
:102fdc0008dbcbb20a2b05d01368581c1060197093
:0a2fec00c8b210bdfef7f4fbfbe7ce
:020000040000fa
:102ff60010b50c235843513080b280225200130082
:10300600002902d00133ff331343190afff781fe6b
:08301600431e9841404210bd29
:020000040000fa
:02301e007047f9
:020000040000fa
:1030200070b50c000e25495f00f036f8002803db70
:10303000636d1b18636570bda389024a1340a381a9
:08304000f9e7c046ffefffffb6
:020000040000fa
:1030480070b50500080011000022064c22601a0025
:1030580000f008fa431c03d12368002b00d02b6032
:0830680070bdc0468c01002080
:020000040000fa
:1030700070b50500080011000022064c22601a00fd
:1030800000f0ecf9431c03d12368002b00d02b6027
:0830900070bdc0468c01002058
:020000040000fa
:1030980070b50500080011000022064c22601a00d5
:1030a80000f0dcf9431c03d12368002b00d02b600f
:0830b80070bdc0468c01002030
:020000040000fa
:1030c000054a002313609360044951600621116092
:1030d000034a93601360704710e000e07fbb00007c
:0430e000c00000200c
:020000040000fa
:1030e400002370b5064c050008002360fff7e6fed8
:1030f400431c03d12368002b00d02b6070bdc04655
:043104008c0100201a
:020000040000fa
:10310800002370b5064c05000800236000f096f90e
:10311800431c03d12368002b00d02b6070bdc04630
:043128008c010020f6
:020000040000fa
:10312c00002370b5064c050008001100236000f068
:10313c0087f9431c03d12368002b00d02b6070bd92
:04314c008c010020d2
:020000040000fa
:10315000002370b5064c05000800236000f07af9e2
:10316000431c03d12368002b00d02b6070bdc046e8
:043170008c010020ae
:020000040000fa
:1031740082b0002900d101a9101e06d0002b06d070
:1031840013780b601078431e984102b070470220f8
:043194004042fae7d4
:020000040000fa
:1031980003783e22934303700388044a1340038054
:1031a8003e221340037000207047c0463ffeffffd9
:020000040000fa
:1031b80010b50020fff786fafdf7fafe00f0dcf8fc
:1031c800fa24a4002000fff75ffefdf77ffff9e770
:020000040000fa
:1031d8000fb407b5054b04aa1b6802ca9868019288
:1031e80000f0a6f803b008bc04b018477803002024
:020000040000fa
:1031f80000000000000000000000000000000000c7
:1032080000000000000000000000000000000000b6
:020000040000fa
:1032180000000000000000000000000000000000a6
:103228000000000000000000000000000000000096
:020000040000fa
:103238000000000000000000000000000000000086
:103248000000000000000000000000000000000076
:020000040000fa
:103258000378012293433e2293431a003f231340ed
:0e326800c02213430370002343700020704700
:020000040000fa
:1032760010b50c23d45e80239b011c4204d11c4351
:0e3286009481146e23431366fef795fe10bd6f
:020000040000fa
:1032940010b5054b9a6801329a601b68002b02d066
:0c32a400014a5068984710bdc00000208f
:020000040000fa
:1032b00010b5531e9a41d2011f2319409a430a4365
:0c32c000d1b2d130ff30fff727fd10bd68
:020000040000fa
:1032cc00bc2c0000c02c0000c42c0000c82c00003a
:0c32dc00cc2c0000d02c0000d42c0000f2
:020000040000fa
:1032e800044b1b681b6a002b00d1034b942252002d
:0c32f800985c70477803002090010020d3
:020000040000fa
:1033040000b583b000230193012101a8fff7eefb70
:0a3314000028f9d0019803b000bdb5
:020000040000fa
:10331e0000b583b06b46d87101216b46d81dfff7ff
:0a332e0064fd0028f8d003b000bdd4
:020000040000fa
:1033380010b513000a00010002480068fcf7c8fe37
:0833480010bdc046780300200f
:020000040000fa
:103350000b1e04d0ff2a04d98a2303608b3b18007c
:0833600070470a700123fae72f
:020000040000fa
:10336800c9b28218904201d10020704703788b427d
:06337800fbd00130f6e776
:020000040000fa
:10338000034b00229a601a6801210a431a607047b1
:0433900010e000e069
:020000040000fa
:1033940010b5034b01001868fef784fa10bdc0464f
:0433a400780300208a
:020000040000fa
:1033a80010b50c235843513080b20121fff7b0fc0f
:0233b80010bd46
:020000040000fa
:1033ba004a424a41802310b55200db00fdf74bfd1b
:0233ca0010bd34
:020000040000fa
:1033cc0010b50968c000f130ff30fff705fb10bde8
:020000040000fa
:1033dc0010b50968c000f530ff30fff7fdfa10bddd
:020000040000fa
:1033ec0010b50249fff75dfb10bdc046a1240000db
:020000040000fa
:1033fc0003008218934200d1704719700133f9e72a
:020000040000fa
:0c340c008222014b5a60704700400041d2
:020000040000fa
:0c34180010b50e23c95efff773fe10bd57
:020000040000fa
:0c34240080239b0100204b607047c046d5
:020000040000fa
:0b3430004300504f53495800002e008d
:020000040000fa
:08343c00bff35f8f62b6704719
:020000040000fa
:0834440010b500f015f810bdf1
:020000040000fa
:08344c0010b5fff7e9ff10bd08
:020000040000fa
:0834540010b500f015f810bde1
:020000040000fa
:08345c0010b500f013f810bddb
:020000040000fa
:0834640010b5fff79bfd10bd40
:020000040000fa
:08346c0010b5fff77ffb10bd56
:020000040000fa
:08347400012040427047c046f0
:020000040000fa
:04347c007047c0468f
:020000040000fa
:04348000fc0200202a
:020000040000fa
:04348400012070476c
:020000040000fa
:043488000020704769
:020000040000fa
:0200000400807a
:0440000077c700d8a6
:020000040000fa
:0200000400807a
:044004005c00ffff5e
:00000001FF
